{
  "_format": "hh-sol-artifact-1",
  "contractName": "DrugRegistration",
  "sourceName": "contracts/DrugRegistration.sol",
  "abi": [
    {
      "anonymous": false,
      "inputs": [
        {
          "indexed": false,
          "internalType": "string",
          "name": "name",
          "type": "string"
        },
        {
          "indexed": false,
          "internalType": "uint256",
          "name": "registrationDate",
          "type": "uint256"
        }
      ],
      "name": "DrugRegistered",
      "type": "event"
    },
    {
      "inputs": [
        {
          "internalType": "string",
          "name": "",
          "type": "string"
        }
      ],
      "name": "drugs",
      "outputs": [
        {
          "internalType": "string",
          "name": "name",
          "type": "string"
        },
        {
          "internalType": "uint256",
          "name": "registrationDate",
          "type": "uint256"
        }
      ],
      "stateMutability": "view",
      "type": "function"
    },
    {
      "inputs": [
        {
          "internalType": "string",
          "name": "_name",
          "type": "string"
        }
      ],
      "name": "getDrugDetails",
      "outputs": [
        {
          "internalType": "string",
          "name": "",
          "type": "string"
        },
        {
          "internalType": "uint256",
          "name": "",
          "type": "uint256"
        }
      ],
      "stateMutability": "view",
      "type": "function"
    },
    {
      "inputs": [
        {
          "internalType": "string",
          "name": "_name",
          "type": "string"
        }
      ],
      "name": "registerDrug",
      "outputs": [],
      "stateMutability": "nonpayable",
      "type": "function"
    }
  ],
  "bytecode": "0x608060405234801561001057600080fd5b506108d0806100206000396000f3fe608060405234801561001057600080fd5b50600436106100415760003560e01c8063567e963614610046578063b009493d14610077578063df24d347146100a8575b600080fd5b610060600480360381019061005b9190610458565b6100c4565b60405161006e929190610539565b60405180910390f35b610091600480360381019061008c9190610458565b6101a4565b60405161009f929190610539565b60405180910390f35b6100c260048036038101906100bd9190610458565b610266565b005b60606000806000846040516100d991906105a5565b9081526020016040518091039020604051806040016040529081600082018054610102906105eb565b80601f016020809104026020016040519081016040528092919081815260200182805461012e906105eb565b801561017b5780601f106101505761010080835404028352916020019161017b565b820191906000526020600020905b81548152906001019060200180831161015e57829003601f168201915b505050505081526020016001820154815250509050806000015181602001519250925050915091565b6000818051602081018201805184825260208301602085012081835280955050505050506000915090508060000180546101dd906105eb565b80601f0160208091040260200160405190810160405280929190818152602001828054610209906105eb565b80156102565780601f1061022b57610100808354040283529160200191610256565b820191906000526020600020905b81548152906001019060200180831161023957829003601f168201915b5050505050908060010154905082565b600060405180604001604052808381526020014281525090508060008360405161029091906105a5565b908152602001604051809103902060008201518160000190816102b391906107c8565b50602082015181600101559050507f909e0a515a22bed5183715f4113af4b6a4cd02905329050e7285cb99c5012ad682426040516102f2929190610539565b60405180910390a15050565b6000604051905090565b600080fd5b600080fd5b600080fd5b600080fd5b6000601f19601f8301169050919050565b7f4e487b7100000000000000000000000000000000000000000000000000000000600052604160045260246000fd5b6103658261031c565b810181811067ffffffffffffffff821117156103845761038361032d565b5b80604052505050565b60006103976102fe565b90506103a3828261035c565b919050565b600067ffffffffffffffff8211156103c3576103c261032d565b5b6103cc8261031c565b9050602081019050919050565b82818337600083830152505050565b60006103fb6103f6846103a8565b61038d565b90508281526020810184848401111561041757610416610317565b5b6104228482856103d9565b509392505050565b600082601f83011261043f5761043e610312565b5b813561044f8482602086016103e8565b91505092915050565b60006020828403121561046e5761046d610308565b5b600082013567ffffffffffffffff81111561048c5761048b61030d565b5b6104988482850161042a565b91505092915050565b600081519050919050565b600082825260208201905092915050565b60005b838110156104db5780820151818401526020810190506104c0565b60008484015250505050565b60006104f2826104a1565b6104fc81856104ac565b935061050c8185602086016104bd565b6105158161031c565b840191505092915050565b6000819050919050565b61053381610520565b82525050565b6000604082019050818103600083015261055381856104e7565b9050610562602083018461052a565b9392505050565b600081905092915050565b600061057f826104a1565b6105898185610569565b93506105998185602086016104bd565b80840191505092915050565b60006105b18284610574565b915081905092915050565b7f4e487b7100000000000000000000000000000000000000000000000000000000600052602260045260246000fd5b6000600282049050600182168061060357607f821691505b602082108103610616576106156105bc565b5b50919050565b60008190508160005260206000209050919050565b60006020601f8301049050919050565b600082821b905092915050565b60006008830261067e7fffffffffffffffffffffffffffffffffffffffffffffffffffffffffffffffff82610641565b6106888683610641565b95508019841693508086168417925050509392505050565b6000819050919050565b60006106c56106c06106bb84610520565b6106a0565b610520565b9050919050565b6000819050919050565b6106df836106aa565b6106f36106eb826106cc565b84845461064e565b825550505050565b600090565b6107086106fb565b6107138184846106d6565b505050565b5b818110156107375761072c600082610700565b600181019050610719565b5050565b601f82111561077c5761074d8161061c565b61075684610631565b81016020851015610765578190505b61077961077185610631565b830182610718565b50505b505050565b600082821c905092915050565b600061079f60001984600802610781565b1980831691505092915050565b60006107b8838361078e565b9150826002028217905092915050565b6107d1826104a1565b67ffffffffffffffff8111156107ea576107e961032d565b5b6107f482546105eb565b6107ff82828561073b565b600060209050601f8311600181146108325760008415610820578287015190505b61082a85826107ac565b865550610892565b601f1984166108408661061c565b60005b8281101561086857848901518255600182019150602085019450602081019050610843565b868310156108855784890151610881601f89168261078e565b8355505b6001600288020188555050505b50505050505056fea264697066735822122067c792564c7ddc1faaff702f47a1e7ce390fff0d461a8c0b0a9b3d35d579959c64736f6c63430008180033",
  "linkReferences": {},
  "deployedLinkReferences": {}
}